{
    "_format": "hh-sol-artifact-1",
    "contractName": "SportsIconPrivateVesting",
    "sourceName": "contracts/SportsIconPrivateVesting.sol",
    "abi": [
        {
            "inputs": [
                {
                    "internalType": "address",
                    "name": "_tokenAddress",
                    "type": "address"
                },
                {
                    "internalType": "address[]",
                    "name": "holders",
                    "type": "address[]"
                },
                {
                    "internalType": "uint256[]",
                    "name": "balances",
                    "type": "uint256[]"
                },
                {
                    "internalType": "address[]",
                    "name": "privilegedHolders",
                    "type": "address[]"
                },
                {
                    "internalType": "uint256[]",
                    "name": "privilegedBalances",
                    "type": "uint256[]"
                },
                {
                    "internalType": "uint256",
                    "name": "_vestingPeriod",
                    "type": "uint256"
                }
            ],
            "stateMutability": "nonpayable",
            "type": "constructor"
        },
        {
            "anonymous": false,
            "inputs": [
                {
                    "indexed": false,
                    "internalType": "address",
                    "name": "claimer",
                    "type": "address"
                },
                {
                    "indexed": false,
                    "internalType": "uint256",
                    "name": "tokensClaimed",
                    "type": "uint256"
                }
            ],
            "name": "LogTokensClaimed",
            "type": "event"
        },
        {
            "inputs": [],
            "name": "claim",
            "outputs": [
                {
                    "internalType": "uint256",
                    "name": "",
                    "type": "uint256"
                }
            ],
            "stateMutability": "nonpayable",
            "type": "function"
        },
        {
            "inputs": [
                {
                    "internalType": "address",
                    "name": "",
                    "type": "address"
                }
            ],
            "name": "claimedOf",
            "outputs": [
                {
                    "internalType": "uint256",
                    "name": "",
                    "type": "uint256"
                }
            ],
            "stateMutability": "view",
            "type": "function"
        },
        {
            "inputs": [
                {
                    "internalType": "address",
                    "name": "user",
                    "type": "address"
                }
            ],
            "name": "freeTokens",
            "outputs": [
                {
                    "internalType": "uint256",
                    "name": "",
                    "type": "uint256"
                }
            ],
            "stateMutability": "view",
            "type": "function"
        },
        {
            "inputs": [],
            "name": "token",
            "outputs": [
                {
                    "internalType": "contract IERC20",
                    "name": "",
                    "type": "address"
                }
            ],
            "stateMutability": "view",
            "type": "function"
        },
        {
            "inputs": [
                {
                    "internalType": "address",
                    "name": "",
                    "type": "address"
                }
            ],
            "name": "vestedTokensOf",
            "outputs": [
                {
                    "internalType": "uint256",
                    "name": "",
                    "type": "uint256"
                }
            ],
            "stateMutability": "view",
            "type": "function"
        },
        {
            "inputs": [
                {
                    "internalType": "address",
                    "name": "",
                    "type": "address"
                }
            ],
            "name": "vestedTokensOfPrivileged",
            "outputs": [
                {
                    "internalType": "uint256",
                    "name": "",
                    "type": "uint256"
                }
            ],
            "stateMutability": "view",
            "type": "function"
        },
        {
            "inputs": [],
            "name": "vestingPeriod",
            "outputs": [
                {
                    "internalType": "uint256",
                    "name": "",
                    "type": "uint256"
                }
            ],
            "stateMutability": "view",
            "type": "function"
        }
    ],
    "bytecode": "0x608060405234801561001057600080fd5b50604051610a3b380380610a3b833981810160405260c081101561003357600080fd5b81516020830180516040519294929383019291908464010000000082111561005a57600080fd5b90830190602082018581111561006f57600080fd5b825186602082028301116401000000008211171561008c57600080fd5b82525081516020918201928201910280838360005b838110156100b95781810151838201526020016100a1565b50505050905001604052602001805160405193929190846401000000008211156100e257600080fd5b9083019060208201858111156100f757600080fd5b825186602082028301116401000000008211171561011457600080fd5b82525081516020918201928201910280838360005b83811015610141578181015183820152602001610129565b505050509050016040526020018051604051939291908464010000000082111561016a57600080fd5b90830190602082018581111561017f57600080fd5b825186602082028301116401000000008211171561019c57600080fd5b82525081516020918201928201910280838360005b838110156101c95781810151838201526020016101b1565b50505050905001604052602001805160405193929190846401000000008211156101f257600080fd5b90830190602082018581111561020757600080fd5b825186602082028301116401000000008211171561022457600080fd5b82525081516020918201928201910280838360005b83811015610251578181015183820152602001610239565b50505050919091016040525060200151855187519193501490508015610278575081518351145b6102b35760405162461bcd60e51b815260040180806020018281038252602a815260200180610a11602a913960400191505060405180910390fd5b6001600160a01b0386166102f85760405162461bcd60e51b81526004018080602001828103825260248152602001806109ed6024913960400191505060405180910390fd5b600081116103375760405162461bcd60e51b81526004018080602001828103825260258152602001806109c86025913960400191505060405180910390fd5b600380546001600160a01b0319166001600160a01b03881617905560005b85518110156104185760018451038111158015610373575060008451115b156103c95782818151811061038457fe5b60200260200101516001600086848151811061039c57fe5b60200260200101516001600160a01b03166001600160a01b03168152602001908152602001600020819055505b8481815181106103d557fe5b60200260200101516000808884815181106103ec57fe5b6020908102919091018101516001600160a01b0316825281019190915260400160002055600101610355565b50600555505042600455505050610594806104346000396000f3fe608060405234801561001057600080fd5b506004361061007d5760003560e01c80637313ee5a1161005b5780637313ee5a146100e857806384ae4209146100f0578063baa3f7ee14610116578063fc0c546a1461013c5761007d565b80630b63b114146100825780634e71d92d146100ba578063505eeeb2146100c2575b600080fd5b6100a86004803603602081101561009857600080fd5b50356001600160a01b0316610160565b60408051918252519081900360200190f35b6100a861019c565b6100a8600480360360208110156100d857600080fd5b50356001600160a01b0316610296565b6100a86102a8565b6100a86004803603602081101561010657600080fd5b50356001600160a01b03166102ae565b6100a86004803603602081101561012c57600080fd5b50356001600160a01b03166102c0565b6101446102d2565b604080516001600160a01b039092168252519081900360200190f35b60008061016c836102e1565b6001600160a01b0384166000908152600260205260409020549091506101939082906103ba565b9150505b919050565b6000806101a833610160565b336000908152600260205260409020549091506101c5908261041c565b33600081815260026020908152604080832094909455600354845163a9059cbb60e01b815260048101949094526024840186905293516001600160a01b039094169363a9059cbb93604480820194918390030190829087803b15801561022a57600080fd5b505af115801561023e573d6000803e3d6000fd5b505050506040513d602081101561025457600080fd5b5050604080513381526020810183905281517fcb3b287df62322e81cc5b4c1ba9d9f5a449e34069d403b00eb061faed581737b929181900390910190a1905090565b60016020526000908152604090205481565b60055481565b60006020819052908152604090205481565b60026020526000908152604090205481565b6003546001600160a01b031681565b6001600160a01b0381166000908152600160205260408120541561031e57506001600160a01b038116600090815260016020526040902054610197565b600061034262278d0061033c600454426103ba90919063ffffffff16565b9061047d565b905060055481111561035357506005545b6001600160a01b0383166000908152602081905260408120549061037882600a61047d565b9050600061038683836103ba565b905060006103a360055461033c84886104e490919063ffffffff16565b90506103af838261041c565b979650505050505050565b600082821115610411576040805162461bcd60e51b815260206004820152601e60248201527f536166654d6174683a207375627472616374696f6e206f766572666c6f770000604482015290519081900360640190fd5b508082035b92915050565b600082820183811015610476576040805162461bcd60e51b815260206004820152601b60248201527f536166654d6174683a206164646974696f6e206f766572666c6f770000000000604482015290519081900360640190fd5b9392505050565b60008082116104d3576040805162461bcd60e51b815260206004820152601a60248201527f536166654d6174683a206469766973696f6e206279207a65726f000000000000604482015290519081900360640190fd5b8183816104dc57fe5b049392505050565b6000826104f357506000610416565b8282028284828161050057fe5b04146104765760405162461bcd60e51b815260040180806020018281038252602181526020018061053e6021913960400191505060405180910390fdfe536166654d6174683a206d756c7469706c69636174696f6e206f766572666c6f77a2646970667358221220e91a8ab0d47dcd2b2bab06ea71443824dec914666e6bdaf39f41057d788313ec64736f6c63430007050033436f6e7374727563746f72203a3a20496e76616c69642076657374696e6720706572696f64436f6e7374727563746f72203a3a20496e76616c696420746f6b656e2061646472657373436f6e7374727563746f72203a3a20486f6c6465727320616e642062616c616e63657320646966666572",
    "linkReferences": {},
    "deployedLinkReferences": {}
}